{
  "contractName": "Election",
  "abi": [
    {
      "constant": true,
      "inputs": [
        {
          "name": "",
          "type": "uint256"
        }
      ],
      "name": "messages",
      "outputs": [
        {
          "name": "",
          "type": "string"
        }
      ],
      "payable": false,
      "stateMutability": "view",
      "type": "function",
      "signature": "0x0d80fefd"
    },
    {
      "constant": true,
      "inputs": [],
      "name": "candidatesCount",
      "outputs": [
        {
          "name": "",
          "type": "uint256"
        }
      ],
      "payable": false,
      "stateMutability": "view",
      "type": "function",
      "signature": "0x2d35a8a2"
    },
    {
      "constant": true,
      "inputs": [
        {
          "name": "",
          "type": "uint256"
        }
      ],
      "name": "candidates",
      "outputs": [
        {
          "name": "id",
          "type": "uint256"
        },
        {
          "name": "name",
          "type": "string"
        },
        {
          "name": "voteCount",
          "type": "uint256"
        }
      ],
      "payable": false,
      "stateMutability": "view",
      "type": "function",
      "signature": "0x3477ee2e"
    },
    {
      "constant": true,
      "inputs": [],
      "name": "messagesCount",
      "outputs": [
        {
          "name": "",
          "type": "uint256"
        }
      ],
      "payable": false,
      "stateMutability": "view",
      "type": "function",
      "signature": "0x9b71653b"
    },
    {
      "constant": true,
      "inputs": [
        {
          "name": "",
          "type": "address"
        }
      ],
      "name": "voters",
      "outputs": [
        {
          "name": "",
          "type": "bool"
        }
      ],
      "payable": false,
      "stateMutability": "view",
      "type": "function",
      "signature": "0xa3ec138d"
    },
    {
      "inputs": [],
      "payable": false,
      "stateMutability": "nonpayable",
      "type": "constructor",
      "signature": "constructor"
    },
    {
      "anonymous": false,
      "inputs": [
        {
          "indexed": true,
          "name": "_candidateId",
          "type": "uint256"
        }
      ],
      "name": "votedEvent",
      "type": "event",
      "signature": "0xfff3c900d938d21d0990d786e819f29b8d05c1ef587b462b939609625b684b16"
    },
    {
      "anonymous": false,
      "inputs": [
        {
          "indexed": true,
          "name": "_candidateCount",
          "type": "uint256"
        }
      ],
      "name": "candidateAdded",
      "type": "event",
      "signature": "0x58b6df71f7457b483a796c1077e42ea827427ecccb2156d374fe8e03524ccdc5"
    },
    {
      "anonymous": false,
      "inputs": [
        {
          "indexed": true,
          "name": "_messageCount",
          "type": "uint256"
        }
      ],
      "name": "messageAdded",
      "type": "event",
      "signature": "0x5730d5d47c51f2d4997eed1aae8813aa41116a5b848abc87ce9defb829c2c388"
    },
    {
      "constant": false,
      "inputs": [
        {
          "name": "_message",
          "type": "string"
        }
      ],
      "name": "addMessage",
      "outputs": [],
      "payable": false,
      "stateMutability": "nonpayable",
      "type": "function",
      "signature": "0x6a226a49"
    },
    {
      "constant": false,
      "inputs": [
        {
          "name": "_name",
          "type": "string"
        }
      ],
      "name": "addCandidate",
      "outputs": [],
      "payable": false,
      "stateMutability": "nonpayable",
      "type": "function",
      "signature": "0x462e91ec"
    },
    {
      "constant": false,
      "inputs": [
        {
          "name": "_candidateId",
          "type": "uint256"
        }
      ],
      "name": "vote",
      "outputs": [],
      "payable": false,
      "stateMutability": "nonpayable",
      "type": "function",
      "signature": "0x0121b93f"
    }
  ],
  "bytecode": "0x60806040523480156200001157600080fd5b50620000616040805190810160405280600c81526020017f48617373616e205461726971000000000000000000000000000000000000000081525062000154640100000000026401000000009004565b620000b06040805190810160405280600e81526020017f4861736e6120456c68696c616c6900000000000000000000000000000000000081525062000154640100000000026401000000009004565b620000ff6040805190810160405280600b81526020017f4d65737361676520232031000000000000000000000000000000000000000000815250620001d3640100000000026401000000009004565b6200014e6040805190810160405280600b81526020017f4d65737361676520232032000000000000000000000000000000000000000000815250620001d3640100000000026401000000009004565b62000379565b60036000815480929190600101919050555060606040519081016040528060035481526020018281526020016000815250600160006003548152602001908152602001600020600082015181600001556020820151816001019080519060200190620001c292919062000243565b506040820151816002015590505050565b60046000815480929190600101919050555080600260006004548152602001908152602001600020908051906020019062000210929190620002ca565b506004547f5730d5d47c51f2d4997eed1aae8813aa41116a5b848abc87ce9defb829c2c38860405160405180910390a250565b828054600181600116156101000203166002900490600052602060002090601f016020900481019282601f106200028657805160ff1916838001178555620002b7565b82800160010185558215620002b7579182015b82811115620002b657825182559160200191906001019062000299565b5b509050620002c6919062000351565b5090565b828054600181600116156101000203166002900490600052602060002090601f016020900481019282601f106200030d57805160ff19168380011785556200033e565b828001600101855582156200033e579182015b828111156200033d57825182559160200191906001019062000320565b5b5090506200034d919062000351565b5090565b6200037691905b808211156200037257600081600090555060010162000358565b5090565b90565b610a1680620003896000396000f3fe60806040526004361061008e576000357c0100000000000000000000000000000000000000000000000000000000900463ffffffff1680630121b93f146100935780630d80fefd146100ce5780632d35a8a2146101825780633477ee2e146101ad578063462e91ec1461026f5780636a226a49146103375780639b71653b146103ff578063a3ec138d1461042a575b600080fd5b34801561009f57600080fd5b506100cc600480360360208110156100b657600080fd5b8101908080359060200190929190505050610493565b005b3480156100da57600080fd5b50610107600480360360208110156100f157600080fd5b81019080803590602001909291905050506105b5565b6040518080602001828103825283818151815260200191508051906020019080838360005b8381101561014757808201518184015260208101905061012c565b50505050905090810190601f1680156101745780820380516001836020036101000a031916815260200191505b509250505060405180910390f35b34801561018e57600080fd5b50610197610665565b6040518082815260200191505060405180910390f35b3480156101b957600080fd5b506101e6600480360360208110156101d057600080fd5b810190808035906020019092919050505061066b565b6040518084815260200180602001838152602001828103825284818151815260200191508051906020019080838360005b83811015610232578082015181840152602081019050610217565b50505050905090810190601f16801561025f5780820380516001836020036101000a031916815260200191505b5094505050505060405180910390f35b34801561027b57600080fd5b506103356004803603602081101561029257600080fd5b81019080803590602001906401000000008111156102af57600080fd5b8201836020820111156102c157600080fd5b803590602001918460018302840111640100000000831117156102e357600080fd5b91908080601f016020809104026020016040519081016040528093929190818152602001838380828437600081840152601f19601f82011690508083019250505050505050919291929050505061072d565b005b34801561034357600080fd5b506103fd6004803603602081101561035a57600080fd5b810190808035906020019064010000000081111561037757600080fd5b82018360208201111561038957600080fd5b803590602001918460018302840111640100000000831117156103ab57600080fd5b91908080601f016020809104026020016040519081016040528093929190818152602001838380828437600081840152601f19601f820116905080830192505050505050509192919290505050610831565b005b34801561040b57600080fd5b5061041461089f565b6040518082815260200191505060405180910390f35b34801561043657600080fd5b506104796004803603602081101561044d57600080fd5b81019080803573ffffffffffffffffffffffffffffffffffffffff1690602001909291905050506108a5565b604051808215151515815260200191505060405180910390f35b6000803373ffffffffffffffffffffffffffffffffffffffff1673ffffffffffffffffffffffffffffffffffffffff16815260200190815260200160002060009054906101000a900460ff161515156104eb57600080fd5b6000811180156104fd57506003548111155b151561050857600080fd5b60016000803373ffffffffffffffffffffffffffffffffffffffff1673ffffffffffffffffffffffffffffffffffffffff16815260200190815260200160002060006101000a81548160ff0219169083151502179055506001600082815260200190815260200160002060020160008154809291906001019190505550807ffff3c900d938d21d0990d786e819f29b8d05c1ef587b462b939609625b684b1660405160405180910390a250565b60026020528060005260406000206000915090508054600181600116156101000203166002900480601f01602080910402602001604051908101604052809291908181526020018280546001816001161561010002031660029004801561065d5780601f106106325761010080835404028352916020019161065d565b820191906000526020600020905b81548152906001019060200180831161064057829003601f168201915b505050505081565b60035481565b6001602052806000526040600020600091509050806000015490806001018054600181600116156101000203166002900480601f01602080910402602001604051908101604052809291908181526020018280546001816001161561010002031660029004801561071d5780601f106106f25761010080835404028352916020019161071d565b820191906000526020600020905b81548152906001019060200180831161070057829003601f168201915b5050505050908060020154905083565b6000803373ffffffffffffffffffffffffffffffffffffffff1673ffffffffffffffffffffffffffffffffffffffff16815260200190815260200160002060009054906101000a900460ff1615151561078557600080fd5b600360008154809291906001019190505550606060405190810160405280600354815260200182815260200160008152506001600060035481526020019081526020016000206000820151816000015560208201518160010190805190602001906107f19291906108c5565b50604082015181600201559050506003547f58b6df71f7457b483a796c1077e42ea827427ecccb2156d374fe8e03524ccdc560405160405180910390a250565b60046000815480929190600101919050555080600260006004548152602001908152602001600020908051906020019061086c929190610945565b506004547f5730d5d47c51f2d4997eed1aae8813aa41116a5b848abc87ce9defb829c2c38860405160405180910390a250565b60045481565b60006020528060005260406000206000915054906101000a900460ff1681565b828054600181600116156101000203166002900490600052602060002090601f016020900481019282601f1061090657805160ff1916838001178555610934565b82800160010185558215610934579182015b82811115610933578251825591602001919060010190610918565b5b50905061094191906109c5565b5090565b828054600181600116156101000203166002900490600052602060002090601f016020900481019282601f1061098657805160ff19168380011785556109b4565b828001600101855582156109b4579182015b828111156109b3578251825591602001919060010190610998565b5b5090506109c191906109c5565b5090565b6109e791905b808211156109e35760008160009055506001016109cb565b5090565b9056fea165627a7a72305820decb7c5b8b0a67f9376f0bdd33c43437e4b56667a34d340f2bb4705353841ad40029",
  "source": "pragma solidity ^0.5.0;\n\n//Election for some candidate\ncontract Election {\n\n    // Model a Candidate\n    struct Candidate {\n        uint id;\n        string name;\n        uint voteCount;\n    }\n\n    // Store accounts that have voted\n    mapping(address => bool) public voters;\n    // Store Candidates\n    // Fetch Candidate\n    mapping(uint => Candidate) public candidates;\n\n\n    //Showing messages \n    mapping(uint => string) public messages;\n\n    // Store Candidates Count\n    uint public candidatesCount;\n\n    // Store Candidates Count\n    uint public messagesCount;\n\n    // voted event\n    event votedEvent (\n        uint indexed _candidateId\n    );\n    \n    // voted event\n    event candidateAdded (\n        uint indexed _candidateCount\n    );\n\n     // voted event\n    event messageAdded (\n        uint indexed _messageCount\n    );\n\n    constructor () public {\n        \n        privatelyAddCandidate(\"Hassan Tariq\");\n        privatelyAddCandidate(\"Hasna Elhilali\");\n        addMessage(\"Message # 1\");\n        addMessage(\"Message # 2\");\n    }\n\n    //function for adding message\n    function addMessage(string memory _message) public {\n        messagesCount ++;\n        messages[messagesCount] = _message;\n        emit messageAdded(messagesCount);\n    }\n\n    //Adding candidate privately \n    function privatelyAddCandidate (string memory _name) private  {\n        candidatesCount ++;\n        candidates[candidatesCount] = Candidate(candidatesCount, _name, 0);\n    }\n\n    //Adding others add candidate\n    function addCandidate (string memory _name) public  {\n        // require that they haven't voted before\n        require(!voters[msg.sender]);\n\n        candidatesCount ++;\n        candidates[candidatesCount] = Candidate(candidatesCount, _name, 0);\n        // trigger voted event\n        emit candidateAdded(candidatesCount);\n    }\n\n    //For for particular candidate\n    function vote (uint _candidateId) public {\n        // require that they haven't voted before\n        require(!voters[msg.sender]);\n\n        // require a valid candidate\n        require(_candidateId > 0 && _candidateId <= candidatesCount);\n\n        // record that voter has voted\n        voters[msg.sender] = true;\n\n        // update candidate vote Count\n        candidates[_candidateId].voteCount ++;\n\n        // trigger voted event\n        emit votedEvent(_candidateId);\n    }\n}\n",
  "sourcePath": "/Users/macbookproretina/Google Drive/Master in Data Science/3rd Semester/DPS/Course Practice/election/contracts/Election.sol",
  "compiler": {
    "name": "solc",
    "version": "0.5.0+commit.1d4f565a.Emscripten.clang"
  },
  "schemaVersion": "3.0.1",
  "updatedAt": "2020-07-09T08:00:17.657Z",
  "devdoc": {
    "methods": {}
  },
  "userdoc": {
    "methods": {}
  }
}